{
  "_format": "hh-sol-artifact-1",
  "contractName": "LiquidStakingVault",
  "sourceName": "contracts/LiquidStakingVault.sol",
  "abi": [
    {
      "inputs": [
        {
          "internalType": "address",
          "name": "_asset",
          "type": "address"
        },
        {
          "internalType": "address",
          "name": "_withdrawalNFT",
          "type": "address"
        },
        {
          "internalType": "string",
          "name": "name",
          "type": "string"
        },
        {
          "internalType": "string",
          "name": "symbol",
          "type": "string"
        }
      ],
      "stateMutability": "nonpayable",
      "type": "constructor"
    },
    {
      "inputs": [
        {
          "internalType": "address",
          "name": "spender",
          "type": "address"
        },
        {
          "internalType": "uint256",
          "name": "allowance",
          "type": "uint256"
        },
        {
          "internalType": "uint256",
          "name": "needed",
          "type": "uint256"
        }
      ],
      "name": "ERC20InsufficientAllowance",
      "type": "error"
    },
    {
      "inputs": [
        {
          "internalType": "address",
          "name": "sender",
          "type": "address"
        },
        {
          "internalType": "uint256",
          "name": "balance",
          "type": "uint256"
        },
        {
          "internalType": "uint256",
          "name": "needed",
          "type": "uint256"
        }
      ],
      "name": "ERC20InsufficientBalance",
      "type": "error"
    },
    {
      "inputs": [
        {
          "internalType": "address",
          "name": "approver",
          "type": "address"
        }
      ],
      "name": "ERC20InvalidApprover",
      "type": "error"
    },
    {
      "inputs": [
        {
          "internalType": "address",
          "name": "receiver",
          "type": "address"
        }
      ],
      "name": "ERC20InvalidReceiver",
      "type": "error"
    },
    {
      "inputs": [
        {
          "internalType": "address",
          "name": "sender",
          "type": "address"
        }
      ],
      "name": "ERC20InvalidSender",
      "type": "error"
    },
    {
      "inputs": [
        {
          "internalType": "address",
          "name": "spender",
          "type": "address"
        }
      ],
      "name": "ERC20InvalidSpender",
      "type": "error"
    },
    {
      "inputs": [
        {
          "internalType": "address",
          "name": "owner",
          "type": "address"
        }
      ],
      "name": "OwnableInvalidOwner",
      "type": "error"
    },
    {
      "inputs": [
        {
          "internalType": "address",
          "name": "account",
          "type": "address"
        }
      ],
      "name": "OwnableUnauthorizedAccount",
      "type": "error"
    },
    {
      "inputs": [],
      "name": "ReentrancyGuardReentrantCall",
      "type": "error"
    },
    {
      "inputs": [
        {
          "internalType": "address",
          "name": "token",
          "type": "address"
        }
      ],
      "name": "SafeERC20FailedOperation",
      "type": "error"
    },
    {
      "anonymous": false,
      "inputs": [
        {
          "indexed": true,
          "internalType": "address",
          "name": "owner",
          "type": "address"
        },
        {
          "indexed": true,
          "internalType": "address",
          "name": "spender",
          "type": "address"
        },
        {
          "indexed": false,
          "internalType": "uint256",
          "name": "value",
          "type": "uint256"
        }
      ],
      "name": "Approval",
      "type": "event"
    },
    {
      "anonymous": false,
      "inputs": [
        {
          "indexed": true,
          "internalType": "address",
          "name": "user",
          "type": "address"
        },
        {
          "indexed": false,
          "internalType": "uint256",
          "name": "assets",
          "type": "uint256"
        },
        {
          "indexed": false,
          "internalType": "uint256",
          "name": "shares",
          "type": "uint256"
        }
      ],
      "name": "Deposited",
      "type": "event"
    },
    {
      "anonymous": false,
      "inputs": [
        {
          "indexed": true,
          "internalType": "address",
          "name": "previousOwner",
          "type": "address"
        },
        {
          "indexed": true,
          "internalType": "address",
          "name": "newOwner",
          "type": "address"
        }
      ],
      "name": "OwnershipTransferred",
      "type": "event"
    },
    {
      "anonymous": false,
      "inputs": [
        {
          "indexed": false,
          "internalType": "uint256",
          "name": "amount",
          "type": "uint256"
        },
        {
          "indexed": false,
          "internalType": "uint256",
          "name": "newExchangeRate",
          "type": "uint256"
        }
      ],
      "name": "RewardsDistributed",
      "type": "event"
    },
    {
      "anonymous": false,
      "inputs": [
        {
          "indexed": true,
          "internalType": "address",
          "name": "from",
          "type": "address"
        },
        {
          "indexed": true,
          "internalType": "address",
          "name": "to",
          "type": "address"
        },
        {
          "indexed": false,
          "internalType": "uint256",
          "name": "value",
          "type": "uint256"
        }
      ],
      "name": "Transfer",
      "type": "event"
    },
    {
      "anonymous": false,
      "inputs": [
        {
          "indexed": true,
          "internalType": "address",
          "name": "user",
          "type": "address"
        },
        {
          "indexed": false,
          "internalType": "uint256",
          "name": "nftId",
          "type": "uint256"
        },
        {
          "indexed": false,
          "internalType": "uint256",
          "name": "assets",
          "type": "uint256"
        }
      ],
      "name": "WithdrawalClaimed",
      "type": "event"
    },
    {
      "anonymous": false,
      "inputs": [
        {
          "indexed": true,
          "internalType": "address",
          "name": "user",
          "type": "address"
        },
        {
          "indexed": false,
          "internalType": "uint256",
          "name": "shares",
          "type": "uint256"
        },
        {
          "indexed": false,
          "internalType": "uint256",
          "name": "nftId",
          "type": "uint256"
        }
      ],
      "name": "WithdrawalInitiated",
      "type": "event"
    },
    {
      "inputs": [],
      "name": "PRECISION",
      "outputs": [
        {
          "internalType": "uint256",
          "name": "",
          "type": "uint256"
        }
      ],
      "stateMutability": "view",
      "type": "function"
    },
    {
      "inputs": [],
      "name": "UNBONDING_PERIOD",
      "outputs": [
        {
          "internalType": "uint256",
          "name": "",
          "type": "uint256"
        }
      ],
      "stateMutability": "view",
      "type": "function"
    },
    {
      "inputs": [
        {
          "internalType": "address",
          "name": "owner",
          "type": "address"
        },
        {
          "internalType": "address",
          "name": "spender",
          "type": "address"
        }
      ],
      "name": "allowance",
      "outputs": [
        {
          "internalType": "uint256",
          "name": "",
          "type": "uint256"
        }
      ],
      "stateMutability": "view",
      "type": "function"
    },
    {
      "inputs": [
        {
          "internalType": "address",
          "name": "spender",
          "type": "address"
        },
        {
          "internalType": "uint256",
          "name": "value",
          "type": "uint256"
        }
      ],
      "name": "approve",
      "outputs": [
        {
          "internalType": "bool",
          "name": "",
          "type": "bool"
        }
      ],
      "stateMutability": "nonpayable",
      "type": "function"
    },
    {
      "inputs": [],
      "name": "asset",
      "outputs": [
        {
          "internalType": "contract IERC20",
          "name": "",
          "type": "address"
        }
      ],
      "stateMutability": "view",
      "type": "function"
    },
    {
      "inputs": [
        {
          "internalType": "address",
          "name": "account",
          "type": "address"
        }
      ],
      "name": "balanceOf",
      "outputs": [
        {
          "internalType": "uint256",
          "name": "",
          "type": "uint256"
        }
      ],
      "stateMutability": "view",
      "type": "function"
    },
    {
      "inputs": [
        {
          "internalType": "uint256",
          "name": "nftId",
          "type": "uint256"
        }
      ],
      "name": "claim",
      "outputs": [],
      "stateMutability": "nonpayable",
      "type": "function"
    },
    {
      "inputs": [
        {
          "internalType": "uint256",
          "name": "shares",
          "type": "uint256"
        }
      ],
      "name": "convertToAssets",
      "outputs": [
        {
          "internalType": "uint256",
          "name": "",
          "type": "uint256"
        }
      ],
      "stateMutability": "view",
      "type": "function"
    },
    {
      "inputs": [
        {
          "internalType": "uint256",
          "name": "assets",
          "type": "uint256"
        }
      ],
      "name": "convertToShares",
      "outputs": [
        {
          "internalType": "uint256",
          "name": "",
          "type": "uint256"
        }
      ],
      "stateMutability": "view",
      "type": "function"
    },
    {
      "inputs": [],
      "name": "decimals",
      "outputs": [
        {
          "internalType": "uint8",
          "name": "",
          "type": "uint8"
        }
      ],
      "stateMutability": "view",
      "type": "function"
    },
    {
      "inputs": [
        {
          "internalType": "uint256",
          "name": "assets",
          "type": "uint256"
        },
        {
          "internalType": "address",
          "name": "receiver",
          "type": "address"
        }
      ],
      "name": "deposit",
      "outputs": [
        {
          "internalType": "uint256",
          "name": "shares",
          "type": "uint256"
        }
      ],
      "stateMutability": "nonpayable",
      "type": "function"
    },
    {
      "inputs": [
        {
          "internalType": "uint256",
          "name": "rewardAmount",
          "type": "uint256"
        }
      ],
      "name": "distributeRewards",
      "outputs": [],
      "stateMutability": "nonpayable",
      "type": "function"
    },
    {
      "inputs": [],
      "name": "exchangeRate",
      "outputs": [
        {
          "internalType": "uint256",
          "name": "",
          "type": "uint256"
        }
      ],
      "stateMutability": "view",
      "type": "function"
    },
    {
      "inputs": [
        {
          "internalType": "address",
          "name": "user",
          "type": "address"
        },
        {
          "internalType": "uint256",
          "name": "",
          "type": "uint256"
        }
      ],
      "name": "getVotingPower",
      "outputs": [
        {
          "internalType": "uint256",
          "name": "",
          "type": "uint256"
        }
      ],
      "stateMutability": "view",
      "type": "function"
    },
    {
      "inputs": [
        {
          "internalType": "uint256",
          "name": "shares",
          "type": "uint256"
        }
      ],
      "name": "initiateWithdraw",
      "outputs": [
        {
          "internalType": "uint256",
          "name": "nftId",
          "type": "uint256"
        }
      ],
      "stateMutability": "nonpayable",
      "type": "function"
    },
    {
      "inputs": [],
      "name": "lastUpdateTime",
      "outputs": [
        {
          "internalType": "uint256",
          "name": "",
          "type": "uint256"
        }
      ],
      "stateMutability": "view",
      "type": "function"
    },
    {
      "inputs": [
        {
          "internalType": "uint256",
          "name": "shares",
          "type": "uint256"
        },
        {
          "internalType": "address",
          "name": "receiver",
          "type": "address"
        }
      ],
      "name": "mint",
      "outputs": [
        {
          "internalType": "uint256",
          "name": "assets",
          "type": "uint256"
        }
      ],
      "stateMutability": "nonpayable",
      "type": "function"
    },
    {
      "inputs": [],
      "name": "name",
      "outputs": [
        {
          "internalType": "string",
          "name": "",
          "type": "string"
        }
      ],
      "stateMutability": "view",
      "type": "function"
    },
    {
      "inputs": [],
      "name": "owner",
      "outputs": [
        {
          "internalType": "address",
          "name": "",
          "type": "address"
        }
      ],
      "stateMutability": "view",
      "type": "function"
    },
    {
      "inputs": [],
      "name": "renounceOwnership",
      "outputs": [],
      "stateMutability": "nonpayable",
      "type": "function"
    },
    {
      "inputs": [],
      "name": "symbol",
      "outputs": [
        {
          "internalType": "string",
          "name": "",
          "type": "string"
        }
      ],
      "stateMutability": "view",
      "type": "function"
    },
    {
      "inputs": [],
      "name": "totalAssets",
      "outputs": [
        {
          "internalType": "uint256",
          "name": "",
          "type": "uint256"
        }
      ],
      "stateMutability": "view",
      "type": "function"
    },
    {
      "inputs": [],
      "name": "totalShares",
      "outputs": [
        {
          "internalType": "uint256",
          "name": "",
          "type": "uint256"
        }
      ],
      "stateMutability": "view",
      "type": "function"
    },
    {
      "inputs": [],
      "name": "totalSupply",
      "outputs": [
        {
          "internalType": "uint256",
          "name": "",
          "type": "uint256"
        }
      ],
      "stateMutability": "view",
      "type": "function"
    },
    {
      "inputs": [
        {
          "internalType": "address",
          "name": "to",
          "type": "address"
        },
        {
          "internalType": "uint256",
          "name": "value",
          "type": "uint256"
        }
      ],
      "name": "transfer",
      "outputs": [
        {
          "internalType": "bool",
          "name": "",
          "type": "bool"
        }
      ],
      "stateMutability": "nonpayable",
      "type": "function"
    },
    {
      "inputs": [
        {
          "internalType": "address",
          "name": "from",
          "type": "address"
        },
        {
          "internalType": "address",
          "name": "to",
          "type": "address"
        },
        {
          "internalType": "uint256",
          "name": "value",
          "type": "uint256"
        }
      ],
      "name": "transferFrom",
      "outputs": [
        {
          "internalType": "bool",
          "name": "",
          "type": "bool"
        }
      ],
      "stateMutability": "nonpayable",
      "type": "function"
    },
    {
      "inputs": [
        {
          "internalType": "address",
          "name": "newOwner",
          "type": "address"
        }
      ],
      "name": "transferOwnership",
      "outputs": [],
      "stateMutability": "nonpayable",
      "type": "function"
    },
    {
      "inputs": [],
      "name": "withdrawalNFT",
      "outputs": [
        {
          "internalType": "contract WithdrawalNFT",
          "name": "",
          "type": "address"
        }
      ],
      "stateMutability": "view",
      "type": "function"
    }
  ],
  "bytecode": "0x60c06040523480156200001157600080fd5b5060405162001ad938038062001ad98339810160408190526200003491620001f5565b338282600362000045838262000314565b50600462000054828262000314565b50506001600555506001600160a01b0381166200008b57604051631e4fbdf760e01b81526000600482015260240160405180910390fd5b6200009681620000c1565b5050506001600160a01b039182166080521660a052670de0b6b3a764000060095542600a55620003e0565b600680546001600160a01b038381166001600160a01b0319831681179093556040519116919082907f8be0079c531659141344cd1fd0a4f28419497f9722a3daafe3b4186f6b6457e090600090a35050565b80516001600160a01b03811681146200012b57600080fd5b919050565b634e487b7160e01b600052604160045260246000fd5b600082601f8301126200015857600080fd5b81516001600160401b038082111562000175576200017562000130565b604051601f8301601f19908116603f01168101908282118183101715620001a057620001a062000130565b81604052838152602092508683858801011115620001bd57600080fd5b600091505b83821015620001e15785820183015181830184015290820190620001c2565b600093810190920192909252949350505050565b600080600080608085870312156200020c57600080fd5b620002178562000113565b9350620002276020860162000113565b60408601519093506001600160401b03808211156200024557600080fd5b620002538883890162000146565b935060608701519150808211156200026a57600080fd5b50620002798782880162000146565b91505092959194509250565b600181811c908216806200029a57607f821691505b602082108103620002bb57634e487b7160e01b600052602260045260246000fd5b50919050565b601f8211156200030f57600081815260208120601f850160051c81016020861015620002ea5750805b601f850160051c820191505b818110156200030b57828155600101620002f6565b5050505b505050565b81516001600160401b0381111562000330576200033062000130565b620003488162000341845462000285565b84620002c1565b602080601f831160018114620003805760008415620003675750858301515b600019600386901b1c1916600185901b1785556200030b565b600085815260208120601f198616915b82811015620003b15788860151825594840194600190910190840162000390565b5085821015620003d05787850151600019600388901b60f8161c191681555b5050505050600190811b01905550565b60805160a051611694620004456000396000818161032901528181610525015281816105fe015281816106d20152610adb01526000818161026f015281816107430152818161081b0152818161092a01528181610bc30152610d1301526116946000f3fe608060405234801561001057600080fd5b50600436106101c45760003560e01c8063715018a6116100f9578063a9059cbb11610097578063c8f33c9111610071578063c8f33c91146103bf578063d9a912ec146103c8578063dd62ed3e146103d2578063f2fde38b1461040b57600080fd5b8063a9059cbb1461038a578063aaf5eb681461039d578063c6e6f592146103ac57600080fd5b80638da5cb5b116100d35780638da5cb5b1461034b5780638ff400f41461035c57806394bf804d1461036f57806395d89b411461038257600080fd5b8063715018a6146103095780637e108d5214610311578063834539451461032457600080fd5b8063379607f5116101665780633ba0b9a9116101405780633ba0b9a9146102b157806359974e38146102ba5780636e553f65146102cd57806370a08231146102e057600080fd5b8063379607f51461025557806338d52e0f1461026a5780633a98ef39146102a957600080fd5b8063095ea7b3116101a2578063095ea7b31461020857806318160ddd1461022b57806323b872dd14610233578063313ce5671461024657600080fd5b806301e1d114146101c957806306fdde03146101e057806307a2d13a146101f5575b600080fd5b6007545b6040519081526020015b60405180910390f35b6101e861041e565b6040516101d791906113be565b6101cd61020336600461140c565b6104b0565b61021b61021636600461143a565b6104c1565b60405190151581526020016101d7565b6002546101cd565b61021b610241366004611466565b6104d9565b604051601281526020016101d7565b61026861026336600461140c565b6104fd565b005b6102917f000000000000000000000000000000000000000000000000000000000000000081565b6040516001600160a01b0390911681526020016101d7565b6008546101cd565b6101cd60095481565b6102686102c836600461140c565b6107b6565b6101cd6102db3660046114a7565b6108a3565b6101cd6102ee3660046114d7565b6001600160a01b031660009081526020819052604090205490565b6102686109e4565b6101cd61031f36600461140c565b6109f8565b6102917f000000000000000000000000000000000000000000000000000000000000000081565b6006546001600160a01b0316610291565b6101cd61036a36600461143a565b610b9f565b6101cd61037d3660046114a7565b610c8c565b6101e8610dbf565b61021b61039836600461143a565b610dce565b6101cd670de0b6b3a764000081565b6101cd6103ba36600461140c565b610ddc565b6101cd600a5481565b6101cd62093a8081565b6101cd6103e03660046114fb565b6001600160a01b03918216600090815260016020908152604080832093909416825291909152205490565b6102686104193660046114d7565b610de7565b60606003805461042d90611529565b80601f016020809104026020016040519081016040528092919081815260200182805461045990611529565b80156104a65780601f1061047b576101008083540402835291602001916104a6565b820191906000526020600020905b81548152906001019060200180831161048957829003601f168201915b5050505050905090565b60006104bb82610e22565b92915050565b6000336104cf818585610e53565b5060019392505050565b6000336104e7858285610e65565b6104f2858585610ee4565b506001949350505050565b610505610f43565b6040516331a9108f60e11b81526004810182905233906001600160a01b037f00000000000000000000000000000000000000000000000000000000000000001690636352211e90602401602060405180830381865afa15801561056c573d6000803e3d6000fd5b505050506040513d601f19601f820116820180604052508101906105909190611563565b6001600160a01b0316146105db5760405162461bcd60e51b815260206004820152600d60248201526c2737ba1027232a1037bbb732b960991b60448201526064015b60405180910390fd5b604051635dde889560e01b81526004810182905260009081906001600160a01b037f00000000000000000000000000000000000000000000000000000000000000001690635dde8895906024016040805180830381865afa158015610644573d6000803e3d6000fd5b505050506040513d601f19601f820116820180604052508101906106689190611580565b91509150804210156106bc5760405162461bcd60e51b815260206004820152601c60248201527f5769746864726177616c206e6f7420617661696c61626c65207965740000000060448201526064016105d2565b604051630852cd8d60e31b8152600481018490527f00000000000000000000000000000000000000000000000000000000000000006001600160a01b0316906342966c6890602401600060405180830381600087803b15801561071e57600080fd5b505af1158015610732573d6000803e3d6000fd5b5061076c9250506001600160a01b037f00000000000000000000000000000000000000000000000000000000000000001690503384610f6d565b604080518481526020810184905233917f2d43eb174787155132b52ddb6b346e2dca99302eac3df4466dbeff953d3c84d1910160405180910390a250506107b36001600555565b50565b6107be610fcc565b6000811161080e5760405162461bcd60e51b815260206004820152601960248201527f52657761726420616d6f756e74206d757374206265203e20300000000000000060448201526064016105d2565b6108436001600160a01b037f000000000000000000000000000000000000000000000000000000000000000016333084610ff9565b806007600082825461085591906115ba565b909155506108639050611032565b6009546040805183815260208101929092527f29e98ba00d07f171959c4ddcd2f3020debc7c52cf537a034d7e664340d098c6c910160405180910390a150565b60006108ad610f43565b600083116108f25760405162461bcd60e51b81526020600482015260126024820152710417373657473206d757374206265203e20360741b60448201526064016105d2565b6108fb83611067565b90506000811161091d5760405162461bcd60e51b81526004016105d2906115cd565b6109526001600160a01b037f000000000000000000000000000000000000000000000000000000000000000016333086610ff9565b826007600082825461096491906115ba565b92505081905550806008600082825461097d91906115ba565b9091555061098b9050611032565b610995828261108c565b60408051848152602081018390526001600160a01b038416917f73a19dd210f1a7f902193214c0ee91dd35ee5b4d920cba8d519eca65a7b488ca91015b60405180910390a26104bb6001600555565b6109ec610fcc565b6109f660006110c6565b565b6000610a02610f43565b60008211610a225760405162461bcd60e51b81526004016105d2906115cd565b33600090815260208190526040902054821115610a775760405162461bcd60e51b8152602060048201526013602482015272496e73756666696369656e742073686172657360681b60448201526064016105d2565b6000610a8283610e22565b9050610a8e3384611118565b8260086000828254610aa091906115f9565b9091555060009050610ab562093a80426115ba565b604051630ab714fb60e11b815233600482015260248101849052604481018290529091507f00000000000000000000000000000000000000000000000000000000000000006001600160a01b03169063156e29f6906064016020604051808303816000875af1158015610b2c573d6000803e3d6000fd5b505050506040513d601f19601f82011682018060405250810190610b50919061160c565b604080518681526020810183905291945033917f31f69201fab7912e3ec9850e3ab705964bf46d9d4276bdcbb6d05e965e5f5401910160405180910390a25050610b9a6001600555565b919050565b6040516370a0823160e01b81526001600160a01b03838116600483015260009182917f000000000000000000000000000000000000000000000000000000000000000016906370a0823190602401602060405180830381865afa158015610c0a573d6000803e3d6000fd5b505050506040513d601f19601f82011682018060405250810190610c2e919061160c565b90506000610c51856001600160a01b031660009081526020819052604090205490565b90506000670de0b6b3a764000060095483610c6c9190611625565b610c76919061163c565b9050610c8281846115ba565b9695505050505050565b6000610c96610f43565b60008311610cb65760405162461bcd60e51b81526004016105d2906115cd565b610cbf83610e22565b905060008111610d065760405162461bcd60e51b81526020600482015260126024820152710417373657473206d757374206265203e20360741b60448201526064016105d2565b610d3b6001600160a01b037f000000000000000000000000000000000000000000000000000000000000000016333084610ff9565b8060076000828254610d4d91906115ba565b925050819055508260086000828254610d6691906115ba565b90915550610d749050611032565b610d7e828461108c565b60408051828152602081018590526001600160a01b038416917f73a19dd210f1a7f902193214c0ee91dd35ee5b4d920cba8d519eca65a7b488ca91016109d2565b60606004805461042d90611529565b6000336104cf818585610ee4565b60006104bb82611067565b610def610fcc565b6001600160a01b038116610e1957604051631e4fbdf760e01b8152600060048201526024016105d2565b6107b3816110c6565b6000600854600003610e32575090565b670de0b6b3a764000060095483610e499190611625565b6104bb919061163c565b610e60838383600161114e565b505050565b6001600160a01b03838116600090815260016020908152604080832093861683529290522054600019811015610ede5781811015610ecf57604051637dc7a0d960e11b81526001600160a01b038416600482015260248101829052604481018390526064016105d2565b610ede8484848403600061114e565b50505050565b6001600160a01b038316610f0e57604051634b637e8f60e11b8152600060048201526024016105d2565b6001600160a01b038216610f385760405163ec442f0560e01b8152600060048201526024016105d2565b610e60838383611223565b600260055403610f6657604051633ee5aeb560e01b815260040160405180910390fd5b6002600555565b6040516001600160a01b03838116602483015260448201839052610e6091859182169063a9059cbb906064015b604051602081830303815290604052915060e01b6020820180516001600160e01b03838183161783525050505061134d565b6006546001600160a01b031633146109f65760405163118cdaa760e01b81523360048201526024016105d2565b6040516001600160a01b038481166024830152838116604483015260648201839052610ede9186918216906323b872dd90608401610f9a565b6008541561106157600854670de0b6b3a76400006007546110539190611625565b61105d919061163c565b6009555b42600a55565b6000600854600003611077575090565b600954610e49670de0b6b3a764000084611625565b6001600160a01b0382166110b65760405163ec442f0560e01b8152600060048201526024016105d2565b6110c260008383611223565b5050565b600680546001600160a01b038381166001600160a01b0319831681179093556040519116919082907f8be0079c531659141344cd1fd0a4f28419497f9722a3daafe3b4186f6b6457e090600090a35050565b6001600160a01b03821661114257604051634b637e8f60e11b8152600060048201526024016105d2565b6110c282600083611223565b6001600160a01b0384166111785760405163e602df0560e01b8152600060048201526024016105d2565b6001600160a01b0383166111a257604051634a1406b160e11b8152600060048201526024016105d2565b6001600160a01b0380851660009081526001602090815260408083209387168352929052208290558015610ede57826001600160a01b0316846001600160a01b03167f8c5be1e5ebec7d5bd14f71427d1e84f3dd0314c0f7b2291e5b200ac8c7c3b9258460405161121591815260200190565b60405180910390a350505050565b6001600160a01b03831661124e57806002600082825461124391906115ba565b909155506112c09050565b6001600160a01b038316600090815260208190526040902054818110156112a15760405163391434e360e21b81526001600160a01b038516600482015260248101829052604481018390526064016105d2565b6001600160a01b03841660009081526020819052604090209082900390555b6001600160a01b0382166112dc576002805482900390556112fb565b6001600160a01b03821660009081526020819052604090208054820190555b816001600160a01b0316836001600160a01b03167fddf252ad1be2c89b69c2b068fc378daa952ba7f163c4a11628f55a4df523b3ef8360405161134091815260200190565b60405180910390a3505050565b600080602060008451602086016000885af180611370576040513d6000823e3d81fd5b50506000513d91508115611388578060011415611395565b6001600160a01b0384163b155b15610ede57604051635274afe760e01b81526001600160a01b03851660048201526024016105d2565b600060208083528351808285015260005b818110156113eb578581018301518582016040015282016113cf565b506000604082860101526040601f19601f8301168501019250505092915050565b60006020828403121561141e57600080fd5b5035919050565b6001600160a01b03811681146107b357600080fd5b6000806040838503121561144d57600080fd5b823561145881611425565b946020939093013593505050565b60008060006060848603121561147b57600080fd5b833561148681611425565b9250602084013561149681611425565b929592945050506040919091013590565b600080604083850312156114ba57600080fd5b8235915060208301356114cc81611425565b809150509250929050565b6000602082840312156114e957600080fd5b81356114f481611425565b9392505050565b6000806040838503121561150e57600080fd5b823561151981611425565b915060208301356114cc81611425565b600181811c9082168061153d57607f821691505b60208210810361155d57634e487b7160e01b600052602260045260246000fd5b50919050565b60006020828403121561157557600080fd5b81516114f481611425565b6000806040838503121561159357600080fd5b505080516020909101519092909150565b634e487b7160e01b600052601160045260246000fd5b808201808211156104bb576104bb6115a4565b6020808252601290820152710536861726573206d757374206265203e20360741b604082015260600190565b818103818111156104bb576104bb6115a4565b60006020828403121561161e57600080fd5b5051919050565b80820281158282048414176104bb576104bb6115a4565b60008261165957634e487b7160e01b600052601260045260246000fd5b50049056fea2646970667358221220e14ea0cd3e8c8b3161781e66ab1585b1d9c818af4654d6d659ed52592d6de01564736f6c63430008140033",
  "linkReferences": {},
  "deployedLinkReferences": {}
}